{"abi":[{"type":"constructor","inputs":[{"name":"admin","type":"address","internalType":"address"}],"stateMutability":"nonpayable"},{"type":"function","name":"DEFAULT_ADMIN_ROLE","inputs":[],"outputs":[{"name":"","type":"bytes32","internalType":"bytes32"}],"stateMutability":"view"},{"type":"function","name":"ORACLE_ROLE","inputs":[],"outputs":[{"name":"","type":"bytes32","internalType":"bytes32"}],"stateMutability":"view"},{"type":"function","name":"getCreditScore","inputs":[{"name":"user","type":"address","internalType":"address"}],"outputs":[{"name":"score","type":"uint8","internalType":"uint8"},{"name":"ltv","type":"uint256","internalType":"uint256"}],"stateMutability":"view"},{"type":"function","name":"getRoleAdmin","inputs":[{"name":"role","type":"bytes32","internalType":"bytes32"}],"outputs":[{"name":"","type":"bytes32","internalType":"bytes32"}],"stateMutability":"view"},{"type":"function","name":"grantRole","inputs":[{"name":"role","type":"bytes32","internalType":"bytes32"},{"name":"account","type":"address","internalType":"address"}],"outputs":[],"stateMutability":"nonpayable"},{"type":"function","name":"hasRole","inputs":[{"name":"role","type":"bytes32","internalType":"bytes32"},{"name":"account","type":"address","internalType":"address"}],"outputs":[{"name":"","type":"bool","internalType":"bool"}],"stateMutability":"view"},{"type":"function","name":"renounceRole","inputs":[{"name":"role","type":"bytes32","internalType":"bytes32"},{"name":"callerConfirmation","type":"address","internalType":"address"}],"outputs":[],"stateMutability":"nonpayable"},{"type":"function","name":"revokeRole","inputs":[{"name":"role","type":"bytes32","internalType":"bytes32"},{"name":"account","type":"address","internalType":"address"}],"outputs":[],"stateMutability":"nonpayable"},{"type":"function","name":"supportsInterface","inputs":[{"name":"interfaceId","type":"bytes4","internalType":"bytes4"}],"outputs":[{"name":"","type":"bool","internalType":"bool"}],"stateMutability":"view"},{"type":"function","name":"updateReputation","inputs":[{"name":"user","type":"address","internalType":"address"},{"name":"usernameHash","type":"bytes32","internalType":"bytes32"},{"name":"volume","type":"uint256","internalType":"uint256"}],"outputs":[],"stateMutability":"nonpayable"},{"type":"function","name":"userActivity","inputs":[{"name":"","type":"address","internalType":"address"}],"outputs":[{"name":"initUsernameHash","type":"bytes32","internalType":"bytes32"},{"name":"bridgedTxCount","type":"uint256","internalType":"uint256"},{"name":"totalVolume","type":"uint256","internalType":"uint256"},{"name":"lastActivityBlock","type":"uint256","internalType":"uint256"},{"name":"creditScore","type":"uint8","internalType":"uint8"}],"stateMutability":"view"},{"type":"function","name":"usernameToAddress","inputs":[{"name":"","type":"bytes32","internalType":"bytes32"}],"outputs":[{"name":"","type":"address","internalType":"address"}],"stateMutability":"view"},{"type":"event","name":"ReputationUpdated","inputs":[{"name":"user","type":"address","indexed":true,"internalType":"address"},{"name":"usernameHash","type":"bytes32","indexed":true,"internalType":"bytes32"},{"name":"score","type":"uint8","indexed":false,"internalType":"uint8"},{"name":"volume","type":"uint256","indexed":false,"internalType":"uint256"}],"anonymous":false},{"type":"event","name":"RoleAdminChanged","inputs":[{"name":"role","type":"bytes32","indexed":true,"internalType":"bytes32"},{"name":"previousAdminRole","type":"bytes32","indexed":true,"internalType":"bytes32"},{"name":"newAdminRole","type":"bytes32","indexed":true,"internalType":"bytes32"}],"anonymous":false},{"type":"event","name":"RoleGranted","inputs":[{"name":"role","type":"bytes32","indexed":true,"internalType":"bytes32"},{"name":"account","type":"address","indexed":true,"internalType":"address"},{"name":"sender","type":"address","indexed":true,"internalType":"address"}],"anonymous":false},{"type":"event","name":"RoleRevoked","inputs":[{"name":"role","type":"bytes32","indexed":true,"internalType":"bytes32"},{"name":"account","type":"address","indexed":true,"internalType":"address"},{"name":"sender","type":"address","indexed":true,"internalType":"address"}],"anonymous":false},{"type":"error","name":"AccessControlBadConfirmation","inputs":[]},{"type":"error","name":"AccessControlUnauthorizedAccount","inputs":[{"name":"account","type":"address","internalType":"address"},{"name":"neededRole","type":"bytes32","internalType":"bytes32"}]}],"bytecode":{"object":"0x608060405234801561000f575f5ffd5b5060405161112638038061112683398181016040528101906100319190610238565b6100435f5f1b8261007b60201b60201c565b506100747f68e79a7bf1e0bc45d0a330c573bc367f9cf464fd326078812f301165fbda4ef18261007b60201b60201c565b5050610263565b5f61008c838361017060201b60201c565b6101665760015f5f8581526020019081526020015f205f015f8473ffffffffffffffffffffffffffffffffffffffff1673ffffffffffffffffffffffffffffffffffffffff1681526020019081526020015f205f6101000a81548160ff0219169083151502179055506101036101d360201b60201c565b73ffffffffffffffffffffffffffffffffffffffff168273ffffffffffffffffffffffffffffffffffffffff16847f2f8788117e7eff1d82e926ec794901d17c78024a50270940304540a733656f0d60405160405180910390a46001905061016a565b5f90505b92915050565b5f5f5f8481526020019081526020015f205f015f8373ffffffffffffffffffffffffffffffffffffffff1673ffffffffffffffffffffffffffffffffffffffff1681526020019081526020015f205f9054906101000a900460ff16905092915050565b5f33905090565b5f5ffd5b5f73ffffffffffffffffffffffffffffffffffffffff82169050919050565b5f610207826101de565b9050919050565b610217816101fd565b8114610221575f5ffd5b50565b5f815190506102328161020e565b92915050565b5f6020828403121561024d5761024c6101da565b5b5f61025a84828501610224565b91505092915050565b610eb6806102705f395ff3fe608060405234801561000f575f5ffd5b50600436106100b2575f3560e01c806391d148541161006f57806391d148541461019c57806399e6da34146101cc578063a217fddf14610200578063d3dd2bdf1461021e578063d547741f1461024f578063efb203bd1461026b576100b2565b806301ffc9a7146100b657806307e2cea5146100e6578063248a9ca3146101045780632f2ff15d146101345780632fdf15d51461015057806336568abe14610180575b5f5ffd5b6100d060048036038101906100cb9190610a67565b610287565b6040516100dd9190610aac565b60405180910390f35b6100ee610300565b6040516100fb9190610add565b60405180910390f35b61011e60048036038101906101199190610b20565b610324565b60405161012b9190610add565b60405180910390f35b61014e60048036038101906101499190610ba5565b610340565b005b61016a60048036038101906101659190610b20565b610362565b6040516101779190610bf2565b60405180910390f35b61019a60048036038101906101959190610ba5565b610392565b005b6101b660048036038101906101b19190610ba5565b61040d565b6040516101c39190610aac565b60405180910390f35b6101e660048036038101906101e19190610c0b565b610470565b6040516101f7959493929190610c69565b60405180910390f35b6102086104ae565b6040516102159190610add565b60405180910390f35b61023860048036038101906102339190610c0b565b6104b4565b604051610246929190610cba565b60405180910390f35b61026960048036038101906102649190610ba5565b61055c565b005b61028560048036038101906102809190610d0b565b61057e565b005b5f7f7965db0b000000000000000000000000000000000000000000000000000000007bffffffffffffffffffffffffffffffffffffffffffffffffffffffff1916827bffffffffffffffffffffffffffffffffffffffffffffffffffffffff191614806102f957506102f882610767565b5b9050919050565b7f68e79a7bf1e0bc45d0a330c573bc367f9cf464fd326078812f301165fbda4ef181565b5f5f5f8381526020019081526020015f20600101549050919050565b61034982610324565b610352816107d0565b61035c83836107e4565b50505050565b6002602052805f5260405f205f915054906101000a900473ffffffffffffffffffffffffffffffffffffffff1681565b61039a6108cd565b73ffffffffffffffffffffffffffffffffffffffff168173ffffffffffffffffffffffffffffffffffffffff16146103fe576040517f6697b23200000000000000000000000000000000000000000000000000000000815260040160405180910390fd5b61040882826108d4565b505050565b5f5f5f8481526020019081526020015f205f015f8373ffffffffffffffffffffffffffffffffffffffff1673ffffffffffffffffffffffffffffffffffffffff1681526020019081526020015f205f9054906101000a900460ff16905092915050565b6001602052805f5260405f205f91509050805f015490806001015490806002015490806003015490806004015f9054906101000a900460ff16905085565b5f5f1b81565b5f5f60015f8473ffffffffffffffffffffffffffffffffffffffff1673ffffffffffffffffffffffffffffffffffffffff1681526020019081526020015f206004015f9054906101000a900460ff1691505f8260ff160361051457601491505b605a8260ff161061052857605a9050610557565b60468260ff161061053c5760509050610556565b60328260ff16106105505760469050610555565b603290505b5b5b915091565b61056582610324565b61056e816107d0565b61057883836108d4565b50505050565b7f68e79a7bf1e0bc45d0a330c573bc367f9cf464fd326078812f301165fbda4ef16105a8816107d0565b5f60015f8673ffffffffffffffffffffffffffffffffffffffff1673ffffffffffffffffffffffffffffffffffffffff1681526020019081526020015f2090505f5f1b815f01540361064c5783815f01819055508460025f8681526020019081526020015f205f6101000a81548173ffffffffffffffffffffffffffffffffffffffff021916908373ffffffffffffffffffffffffffffffffffffffff1602179055505b6001816001015f8282546106609190610d88565b9250508190555082816002015f82825461067a9190610d88565b925050819055504381600301819055505f6064670de0b6b3a7640000856106a19190610de8565b6106ab9190610de8565b600283600101546106bc9190610e18565b60326106c89190610d88565b6106d29190610d88565b905060648111156106e257606490505b80826004015f6101000a81548160ff021916908360ff160217905550848673ffffffffffffffffffffffffffffffffffffffff167fbc8b76c7f7395fdc9abe1e7a7bc66194d592b009ee333869f0f7e730fc2d868a846004015f9054906101000a900460ff1687604051610757929190610cba565b60405180910390a3505050505050565b5f7f01ffc9a7000000000000000000000000000000000000000000000000000000007bffffffffffffffffffffffffffffffffffffffffffffffffffffffff1916827bffffffffffffffffffffffffffffffffffffffffffffffffffffffff1916149050919050565b6107e1816107dc6108cd565b6109bd565b50565b5f6107ef838361040d565b6108c35760015f5f8581526020019081526020015f205f015f8473ffffffffffffffffffffffffffffffffffffffff1673ffffffffffffffffffffffffffffffffffffffff1681526020019081526020015f205f6101000a81548160ff0219169083151502179055506108606108cd565b73ffffffffffffffffffffffffffffffffffffffff168273ffffffffffffffffffffffffffffffffffffffff16847f2f8788117e7eff1d82e926ec794901d17c78024a50270940304540a733656f0d60405160405180910390a4600190506108c7565b5f90505b92915050565b5f33905090565b5f6108df838361040d565b156109b3575f5f5f8581526020019081526020015f205f015f8473ffffffffffffffffffffffffffffffffffffffff1673ffffffffffffffffffffffffffffffffffffffff1681526020019081526020015f205f6101000a81548160ff0219169083151502179055506109506108cd565b73ffffffffffffffffffffffffffffffffffffffff168273ffffffffffffffffffffffffffffffffffffffff16847ff6391f5c32d9c69d2a47ea670b442974b53935d1edc7fd64eb21e047a839171b60405160405180910390a4600190506109b7565b5f90505b92915050565b6109c7828261040d565b610a0a5780826040517fe2517d3f000000000000000000000000000000000000000000000000000000008152600401610a01929190610e59565b60405180910390fd5b5050565b5f5ffd5b5f7fffffffff0000000000000000000000000000000000000000000000000000000082169050919050565b610a4681610a12565b8114610a50575f5ffd5b50565b5f81359050610a6181610a3d565b92915050565b5f60208284031215610a7c57610a7b610a0e565b5b5f610a8984828501610a53565b91505092915050565b5f8115159050919050565b610aa681610a92565b82525050565b5f602082019050610abf5f830184610a9d565b92915050565b5f819050919050565b610ad781610ac5565b82525050565b5f602082019050610af05f830184610ace565b92915050565b610aff81610ac5565b8114610b09575f5ffd5b50565b5f81359050610b1a81610af6565b92915050565b5f60208284031215610b3557610b34610a0e565b5b5f610b4284828501610b0c565b91505092915050565b5f73ffffffffffffffffffffffffffffffffffffffff82169050919050565b5f610b7482610b4b565b9050919050565b610b8481610b6a565b8114610b8e575f5ffd5b50565b5f81359050610b9f81610b7b565b92915050565b5f5f60408385031215610bbb57610bba610a0e565b5b5f610bc885828601610b0c565b9250506020610bd985828601610b91565b9150509250929050565b610bec81610b6a565b82525050565b5f602082019050610c055f830184610be3565b92915050565b5f60208284031215610c2057610c1f610a0e565b5b5f610c2d84828501610b91565b91505092915050565b5f819050919050565b610c4881610c36565b82525050565b5f60ff82169050919050565b610c6381610c4e565b82525050565b5f60a082019050610c7c5f830188610ace565b610c896020830187610c3f565b610c966040830186610c3f565b610ca36060830185610c3f565b610cb06080830184610c5a565b9695505050505050565b5f604082019050610ccd5f830185610c5a565b610cda6020830184610c3f565b9392505050565b610cea81610c36565b8114610cf4575f5ffd5b50565b5f81359050610d0581610ce1565b92915050565b5f5f5f60608486031215610d2257610d21610a0e565b5b5f610d2f86828701610b91565b9350506020610d4086828701610b0c565b9250506040610d5186828701610cf7565b9150509250925092565b7f4e487b71000000000000000000000000000000000000000000000000000000005f52601160045260245ffd5b5f610d9282610c36565b9150610d9d83610c36565b9250828201905080821115610db557610db4610d5b565b5b92915050565b7f4e487b71000000000000000000000000000000000000000000000000000000005f52601260045260245ffd5b5f610df282610c36565b9150610dfd83610c36565b925082610e0d57610e0c610dbb565b5b828204905092915050565b5f610e2282610c36565b9150610e2d83610c36565b9250828202610e3b81610c36565b91508282048414831517610e5257610e51610d5b565b5b5092915050565b5f604082019050610e6c5f830185610be3565b610e796020830184610ace565b939250505056fea26469706673582212203fd52e8918a2685d29c95caf3a6683714f0f10841247f17c1874da10d1e554c864736f6c634300081e0033","linkReferences":{}},"methodIdentifiers":{"DEFAULT_ADMIN_ROLE()":"a217fddf","ORACLE_ROLE()":"07e2cea5","getCreditScore(address)":"d3dd2bdf","getRoleAdmin(bytes32)":"248a9ca3","grantRole(bytes32,address)":"2f2ff15d","hasRole(bytes32,address)":"91d14854","renounceRole(bytes32,address)":"36568abe","revokeRole(bytes32,address)":"d547741f","supportsInterface(bytes4)":"01ffc9a7","updateReputation(address,bytes32,uint256)":"efb203bd","userActivity(address)":"99e6da34","usernameToAddress(bytes32)":"2fdf15d5"},"id":11}