{"abi":[{"type":"constructor","inputs":[{"name":"_admin","type":"address","internalType":"address"},{"name":"_asset","type":"address","internalType":"address"}],"stateMutability":"nonpayable"},{"type":"function","name":"DEFAULT_ADMIN_ROLE","inputs":[],"outputs":[{"name":"","type":"bytes32","internalType":"bytes32"}],"stateMutability":"view"},{"type":"function","name":"LIQUIDATOR_ROLE","inputs":[],"outputs":[{"name":"","type":"bytes32","internalType":"bytes32"}],"stateMutability":"view"},{"type":"function","name":"asset","inputs":[],"outputs":[{"name":"","type":"address","internalType":"contract IERC20"}],"stateMutability":"view"},{"type":"function","name":"depositBuffer","inputs":[{"name":"amount","type":"uint256","internalType":"uint256"}],"outputs":[],"stateMutability":"nonpayable"},{"type":"function","name":"emergencyWithdraw","inputs":[{"name":"amount","type":"uint256","internalType":"uint256"}],"outputs":[],"stateMutability":"nonpayable"},{"type":"function","name":"getRoleAdmin","inputs":[{"name":"role","type":"bytes32","internalType":"bytes32"}],"outputs":[{"name":"","type":"bytes32","internalType":"bytes32"}],"stateMutability":"view"},{"type":"function","name":"grantRole","inputs":[{"name":"role","type":"bytes32","internalType":"bytes32"},{"name":"account","type":"address","internalType":"address"}],"outputs":[],"stateMutability":"nonpayable"},{"type":"function","name":"hasRole","inputs":[{"name":"role","type":"bytes32","internalType":"bytes32"},{"name":"account","type":"address","internalType":"address"}],"outputs":[{"name":"","type":"bool","internalType":"bool"}],"stateMutability":"view"},{"type":"function","name":"lendingPool","inputs":[],"outputs":[{"name":"","type":"address","internalType":"address"}],"stateMutability":"view"},{"type":"function","name":"liquidate","inputs":[{"name":"user","type":"address","internalType":"address"},{"name":"amount","type":"uint256","internalType":"uint256"}],"outputs":[],"stateMutability":"nonpayable"},{"type":"function","name":"renounceRole","inputs":[{"name":"role","type":"bytes32","internalType":"bytes32"},{"name":"callerConfirmation","type":"address","internalType":"address"}],"outputs":[],"stateMutability":"nonpayable"},{"type":"function","name":"revokeRole","inputs":[{"name":"role","type":"bytes32","internalType":"bytes32"},{"name":"account","type":"address","internalType":"address"}],"outputs":[],"stateMutability":"nonpayable"},{"type":"function","name":"setLendingPool","inputs":[{"name":"_pool","type":"address","internalType":"address"}],"outputs":[],"stateMutability":"nonpayable"},{"type":"function","name":"supportsInterface","inputs":[{"name":"interfaceId","type":"bytes4","internalType":"bytes4"}],"outputs":[{"name":"","type":"bool","internalType":"bool"}],"stateMutability":"view"},{"type":"event","name":"BufferDeposited","inputs":[{"name":"provider","type":"address","indexed":true,"internalType":"address"},{"name":"amount","type":"uint256","indexed":false,"internalType":"uint256"}],"anonymous":false},{"type":"event","name":"Liquidated","inputs":[{"name":"user","type":"address","indexed":true,"internalType":"address"},{"name":"amountClaimed","type":"uint256","indexed":false,"internalType":"uint256"},{"name":"liquidator","type":"address","indexed":true,"internalType":"address"}],"anonymous":false},{"type":"event","name":"RoleAdminChanged","inputs":[{"name":"role","type":"bytes32","indexed":true,"internalType":"bytes32"},{"name":"previousAdminRole","type":"bytes32","indexed":true,"internalType":"bytes32"},{"name":"newAdminRole","type":"bytes32","indexed":true,"internalType":"bytes32"}],"anonymous":false},{"type":"event","name":"RoleGranted","inputs":[{"name":"role","type":"bytes32","indexed":true,"internalType":"bytes32"},{"name":"account","type":"address","indexed":true,"internalType":"address"},{"name":"sender","type":"address","indexed":true,"internalType":"address"}],"anonymous":false},{"type":"event","name":"RoleRevoked","inputs":[{"name":"role","type":"bytes32","indexed":true,"internalType":"bytes32"},{"name":"account","type":"address","indexed":true,"internalType":"address"},{"name":"sender","type":"address","indexed":true,"internalType":"address"}],"anonymous":false},{"type":"error","name":"AccessControlBadConfirmation","inputs":[]},{"type":"error","name":"AccessControlUnauthorizedAccount","inputs":[{"name":"account","type":"address","internalType":"address"},{"name":"neededRole","type":"bytes32","internalType":"bytes32"}]},{"type":"error","name":"SafeERC20FailedOperation","inputs":[{"name":"token","type":"address","internalType":"address"}]}],"bytecode":{"object":"0x60a060405234801561000f575f5ffd5b506040516112d63803806112d68339818101604052810190610031919061023c565b6100435f5f1b8361007f60201b60201c565b508073ffffffffffffffffffffffffffffffffffffffff1660808173ffffffffffffffffffffffffffffffffffffffff1681525050505061027a565b5f610090838361017460201b60201c565b61016a5760015f5f8581526020019081526020015f205f015f8473ffffffffffffffffffffffffffffffffffffffff1673ffffffffffffffffffffffffffffffffffffffff1681526020019081526020015f205f6101000a81548160ff0219169083151502179055506101076101d760201b60201c565b73ffffffffffffffffffffffffffffffffffffffff168273ffffffffffffffffffffffffffffffffffffffff16847f2f8788117e7eff1d82e926ec794901d17c78024a50270940304540a733656f0d60405160405180910390a46001905061016e565b5f90505b92915050565b5f5f5f8481526020019081526020015f205f015f8373ffffffffffffffffffffffffffffffffffffffff1673ffffffffffffffffffffffffffffffffffffffff1681526020019081526020015f205f9054906101000a900460ff16905092915050565b5f33905090565b5f5ffd5b5f73ffffffffffffffffffffffffffffffffffffffff82169050919050565b5f61020b826101e2565b9050919050565b61021b81610201565b8114610225575f5ffd5b50565b5f8151905061023681610212565b92915050565b5f5f60408385031215610252576102516101de565b5b5f61025f85828601610228565b925050602061027085828601610228565b9150509250929050565b60805161102f6102a75f395f818161046001528181610495015281816104e50152610636015261102f5ff3fe608060405234801561000f575f5ffd5b50600436106100e8575f3560e01c80635312ea8e1161008a578063a217fddf11610064578063a217fddf14610244578063a59a997314610262578063bcbaf48714610280578063d547741f1461029c576100e8565b80635312ea8e146101dc5780635e5c4732146101f857806391d1485414610214576100e8565b8063248a9ca3116100c6578063248a9ca3146101565780632f2ff15d1461018657806336568abe146101a257806338d52e0f146101be576100e8565b806301ffc9a7146100ec578063113aa8b11461011c57806316d8887a14610138575b5f5ffd5b61010660048036038101906101019190610c14565b6102b8565b6040516101139190610c59565b60405180910390f35b61013660048036038101906101319190610ccc565b610331565b005b610140610381565b60405161014d9190610d0f565b60405180910390f35b610170600480360381019061016b9190610d52565b6103a5565b60405161017d9190610d0f565b60405180910390f35b6101a0600480360381019061019b9190610d7d565b6103c1565b005b6101bc60048036038101906101b79190610d7d565b6103e3565b005b6101c661045e565b6040516101d39190610e16565b60405180910390f35b6101f660048036038101906101f19190610e62565b610482565b005b610212600480360381019061020d9190610e62565b6104dd565b005b61022e60048036038101906102299190610d7d565b61057b565b60405161023b9190610c59565b60405180910390f35b61024c6105de565b6040516102599190610d0f565b60405180910390f35b61026a6105e4565b6040516102779190610e9c565b60405180910390f35b61029a60048036038101906102959190610eb5565b610609565b005b6102b660048036038101906102b19190610d7d565b610777565b005b5f7f7965db0b000000000000000000000000000000000000000000000000000000007bffffffffffffffffffffffffffffffffffffffffffffffffffffffff1916827bffffffffffffffffffffffffffffffffffffffffffffffffffffffff1916148061032a575061032982610799565b5b9050919050565b5f5f1b61033d81610802565b8160015f6101000a81548173ffffffffffffffffffffffffffffffffffffffff021916908373ffffffffffffffffffffffffffffffffffffffff1602179055505050565b7f5e17fc5225d4a099df75359ce1f405503ca79498a8dc46a7d583235a0ee45c1681565b5f5f5f8381526020019081526020015f20600101549050919050565b6103ca826103a5565b6103d381610802565b6103dd8383610816565b50505050565b6103eb6108ff565b73ffffffffffffffffffffffffffffffffffffffff168173ffffffffffffffffffffffffffffffffffffffff161461044f576040517f6697b23200000000000000000000000000000000000000000000000000000000815260040160405180910390fd5b6104598282610906565b505050565b7f000000000000000000000000000000000000000000000000000000000000000081565b5f5f1b61048e81610802565b6104d933837f000000000000000000000000000000000000000000000000000000000000000073ffffffffffffffffffffffffffffffffffffffff166109ef9092919063ffffffff16565b5050565b61052a3330837f000000000000000000000000000000000000000000000000000000000000000073ffffffffffffffffffffffffffffffffffffffff16610a42909392919063ffffffff16565b3373ffffffffffffffffffffffffffffffffffffffff167f55fd55d5ba0c5b1e2f0ab7a6ce108e6e755a8575d466b8604d9e958504f85e38826040516105709190610f02565b60405180910390a250565b5f5f5f8481526020019081526020015f205f015f8373ffffffffffffffffffffffffffffffffffffffff1673ffffffffffffffffffffffffffffffffffffffff1681526020019081526020015f205f9054906101000a900460ff16905092915050565b5f5f1b81565b60015f9054906101000a900473ffffffffffffffffffffffffffffffffffffffff1681565b7f5e17fc5225d4a099df75359ce1f405503ca79498a8dc46a7d583235a0ee45c1661063381610802565b817f000000000000000000000000000000000000000000000000000000000000000073ffffffffffffffffffffffffffffffffffffffff166370a08231306040518263ffffffff1660e01b815260040161068d9190610e9c565b602060405180830381865afa1580156106a8573d5f5f3e3d5ffd5b505050506040513d601f19601f820116820180604052508101906106cc9190610f2f565b101561070d576040517f08c379a000000000000000000000000000000000000000000000000000000000815260040161070490610fb4565b60405180910390fd5b3373ffffffffffffffffffffffffffffffffffffffff168373ffffffffffffffffffffffffffffffffffffffff167f0c210dbb07f7aab03c41ec07f0da12daaa276057060fdded4ad506ce2d5035958460405161076a9190610f02565b60405180910390a3505050565b610780826103a5565b61078981610802565b6107938383610906565b50505050565b5f7f01ffc9a7000000000000000000000000000000000000000000000000000000007bffffffffffffffffffffffffffffffffffffffffffffffffffffffff1916827bffffffffffffffffffffffffffffffffffffffffffffffffffffffff1916149050919050565b6108138161080e6108ff565b610a97565b50565b5f610821838361057b565b6108f55760015f5f8581526020019081526020015f205f015f8473ffffffffffffffffffffffffffffffffffffffff1673ffffffffffffffffffffffffffffffffffffffff1681526020019081526020015f205f6101000a81548160ff0219169083151502179055506108926108ff565b73ffffffffffffffffffffffffffffffffffffffff168273ffffffffffffffffffffffffffffffffffffffff16847f2f8788117e7eff1d82e926ec794901d17c78024a50270940304540a733656f0d60405160405180910390a4600190506108f9565b5f90505b92915050565b5f33905090565b5f610911838361057b565b156109e5575f5f5f8581526020019081526020015f205f015f8473ffffffffffffffffffffffffffffffffffffffff1673ffffffffffffffffffffffffffffffffffffffff1681526020019081526020015f205f6101000a81548160ff0219169083151502179055506109826108ff565b73ffffffffffffffffffffffffffffffffffffffff168273ffffffffffffffffffffffffffffffffffffffff16847ff6391f5c32d9c69d2a47ea670b442974b53935d1edc7fd64eb21e047a839171b60405160405180910390a4600190506109e9565b5f90505b92915050565b6109fc8383836001610ae8565b610a3d57826040517f5274afe7000000000000000000000000000000000000000000000000000000008152600401610a349190610e9c565b60405180910390fd5b505050565b610a50848484846001610b4a565b610a9157836040517f5274afe7000000000000000000000000000000000000000000000000000000008152600401610a889190610e9c565b60405180910390fd5b50505050565b610aa1828261057b565b610ae45780826040517fe2517d3f000000000000000000000000000000000000000000000000000000008152600401610adb929190610fd2565b60405180910390fd5b5050565b5f5f63a9059cbb60e01b9050604051815f525f1960601c86166004528460245260205f60445f5f8b5af1925060015f51148316610b3c578383151615610b30573d5f823e3d81fd5b5f873b113d1516831692505b806040525050949350505050565b5f5f6323b872dd60e01b9050604051815f525f1960601c87166004525f1960601c86166024528460445260205f60645f5f8c5af1925060015f51148316610ba8578383151615610b9c573d5f823e3d81fd5b5f883b113d1516831692505b806040525f606052505095945050505050565b5f5ffd5b5f7fffffffff0000000000000000000000000000000000000000000000000000000082169050919050565b610bf381610bbf565b8114610bfd575f5ffd5b50565b5f81359050610c0e81610bea565b92915050565b5f60208284031215610c2957610c28610bbb565b5b5f610c3684828501610c00565b91505092915050565b5f8115159050919050565b610c5381610c3f565b82525050565b5f602082019050610c6c5f830184610c4a565b92915050565b5f73ffffffffffffffffffffffffffffffffffffffff82169050919050565b5f610c9b82610c72565b9050919050565b610cab81610c91565b8114610cb5575f5ffd5b50565b5f81359050610cc681610ca2565b92915050565b5f60208284031215610ce157610ce0610bbb565b5b5f610cee84828501610cb8565b91505092915050565b5f819050919050565b610d0981610cf7565b82525050565b5f602082019050610d225f830184610d00565b92915050565b610d3181610cf7565b8114610d3b575f5ffd5b50565b5f81359050610d4c81610d28565b92915050565b5f60208284031215610d6757610d66610bbb565b5b5f610d7484828501610d3e565b91505092915050565b5f5f60408385031215610d9357610d92610bbb565b5b5f610da085828601610d3e565b9250506020610db185828601610cb8565b9150509250929050565b5f819050919050565b5f610dde610dd9610dd484610c72565b610dbb565b610c72565b9050919050565b5f610def82610dc4565b9050919050565b5f610e0082610de5565b9050919050565b610e1081610df6565b82525050565b5f602082019050610e295f830184610e07565b92915050565b5f819050919050565b610e4181610e2f565b8114610e4b575f5ffd5b50565b5f81359050610e5c81610e38565b92915050565b5f60208284031215610e7757610e76610bbb565b5b5f610e8484828501610e4e565b91505092915050565b610e9681610c91565b82525050565b5f602082019050610eaf5f830184610e8d565b92915050565b5f5f60408385031215610ecb57610eca610bbb565b5b5f610ed885828601610cb8565b9250506020610ee985828601610e4e565b9150509250929050565b610efc81610e2f565b82525050565b5f602082019050610f155f830184610ef3565b92915050565b5f81519050610f2981610e38565b92915050565b5f60208284031215610f4457610f43610bbb565b5b5f610f5184828501610f1b565b91505092915050565b5f82825260208201905092915050565b7f496e73756666696369656e74207661756c7420627566666572000000000000005f82015250565b5f610f9e601983610f5a565b9150610fa982610f6a565b602082019050919050565b5f6020820190508181035f830152610fcb81610f92565b9050919050565b5f604082019050610fe55f830185610e8d565b610ff26020830184610d00565b939250505056fea2646970667358221220fdfc192fafcb5a448411f68a20f0023200d52d7f12d199ebd19612aadee026f164736f6c634300081e0033","linkReferences":{}},"methodIdentifiers":{"DEFAULT_ADMIN_ROLE()":"a217fddf","LIQUIDATOR_ROLE()":"16d8887a","asset()":"38d52e0f","depositBuffer(uint256)":"5e5c4732","emergencyWithdraw(uint256)":"5312ea8e","getRoleAdmin(bytes32)":"248a9ca3","grantRole(bytes32,address)":"2f2ff15d","hasRole(bytes32,address)":"91d14854","lendingPool()":"a59a9973","liquidate(address,uint256)":"bcbaf487","renounceRole(bytes32,address)":"36568abe","revokeRole(bytes32,address)":"d547741f","setLendingPool(address)":"113aa8b1","supportsInterface(bytes4)":"01ffc9a7"},"id":26}