{"abi":[{"type":"constructor","inputs":[{"name":"_oracle","type":"address","internalType":"address"},{"name":"_asset","type":"address","internalType":"address"}],"stateMutability":"nonpayable"},{"type":"function","name":"asset","inputs":[],"outputs":[{"name":"","type":"address","internalType":"contract IERC20"}],"stateMutability":"view"},{"type":"function","name":"borrow","inputs":[{"name":"amount","type":"uint256","internalType":"uint256"},{"name":"collateralValue","type":"uint256","internalType":"uint256"}],"outputs":[],"stateMutability":"nonpayable"},{"type":"function","name":"loans","inputs":[{"name":"","type":"address","internalType":"address"}],"outputs":[{"name":"principal","type":"uint256","internalType":"uint256"},{"name":"collateral","type":"uint256","internalType":"uint256"},{"name":"ltv","type":"uint256","internalType":"uint256"},{"name":"startBlock","type":"uint256","internalType":"uint256"},{"name":"active","type":"bool","internalType":"bool"}],"stateMutability":"view"},{"type":"function","name":"minScoreForLTV","inputs":[{"name":"","type":"uint256","internalType":"uint256"}],"outputs":[{"name":"","type":"uint8","internalType":"uint8"}],"stateMutability":"view"},{"type":"function","name":"repay","inputs":[],"outputs":[],"stateMutability":"nonpayable"},{"type":"function","name":"reputationOracle","inputs":[],"outputs":[{"name":"","type":"address","internalType":"contract ReputationOracle"}],"stateMutability":"view"},{"type":"event","name":"Borrowed","inputs":[{"name":"user","type":"address","indexed":true,"internalType":"address"},{"name":"amount","type":"uint256","indexed":false,"internalType":"uint256"},{"name":"collateral","type":"uint256","indexed":false,"internalType":"uint256"},{"name":"ltv","type":"uint256","indexed":false,"internalType":"uint256"}],"anonymous":false},{"type":"event","name":"Repaid","inputs":[{"name":"user","type":"address","indexed":true,"internalType":"address"},{"name":"amount","type":"uint256","indexed":false,"internalType":"uint256"}],"anonymous":false},{"type":"error","name":"SafeERC20FailedOperation","inputs":[{"name":"token","type":"address","internalType":"address"}]}],"bytecode":{"object":"0x60c060405234801561000f575f5ffd5b50604051610f54380380610f548339818101604052810190610031919061017f565b8173ffffffffffffffffffffffffffffffffffffffff1660808173ffffffffffffffffffffffffffffffffffffffff16815250508073ffffffffffffffffffffffffffffffffffffffff1660a08173ffffffffffffffffffffffffffffffffffffffff1681525050605a60015f605a81526020019081526020015f205f6101000a81548160ff021916908360ff160217905550604660015f605081526020019081526020015f205f6101000a81548160ff021916908360ff160217905550603260015f604681526020019081526020015f205f6101000a81548160ff021916908360ff16021790555050506101bd565b5f5ffd5b5f73ffffffffffffffffffffffffffffffffffffffff82169050919050565b5f61014e82610125565b9050919050565b61015e81610144565b8114610168575f5ffd5b50565b5f8151905061017981610155565b92915050565b5f5f6040838503121561019557610194610121565b5b5f6101a28582860161016b565b92505060206101b38582860161016b565b9150509250929050565b60805160a051610d616101f35f395f81816103760152818161041501526104d501525f81816101ba01526105e30152610d615ff3fe608060405234801561000f575f5ffd5b5060043610610060575f3560e01c80630ecbcdab1461006457806338d52e0f14610080578063402d88831461009e57806373b4086b146100a8578063c1f32205146100dc578063fad844c11461010c575b5f5ffd5b61007e600480360381019061007991906107b7565b61012a565b005b610088610413565b604051610095919061086f565b60405180910390f35b6100a6610437565b005b6100c260048036038101906100bd91906108c3565b610587565b6040516100d3959493929190610917565b60405180910390f35b6100f660048036038101906100f19190610968565b6105c4565b60405161010391906109ae565b60405180910390f35b6101146105e1565b60405161012191906109e7565b60405180910390f35b5f5f3373ffffffffffffffffffffffffffffffffffffffff1673ffffffffffffffffffffffffffffffffffffffff1681526020019081526020015f206004015f9054906101000a900460ff16156101b6576040517f08c379a00000000000000000000000000000000000000000000000000000000081526004016101ad90610a5a565b60405180910390fd5b5f5f7f000000000000000000000000000000000000000000000000000000000000000073ffffffffffffffffffffffffffffffffffffffff1663d3dd2bdf336040518263ffffffff1660e01b81526004016102119190610a87565b6040805180830381865afa15801561022b573d5f5f3e3d5ffd5b505050506040513d601f19601f8201168201806040525081019061024f9190610ade565b915091505f5f905060558360ff1610156102c157816064866102719190610b49565b61027b9190610bb7565b9050808410156102c0576040517f08c379a00000000000000000000000000000000000000000000000000000000081526004016102b790610c57565b60405180910390fd5b5b6040518060a00160405280868152602001858152602001838152602001438152602001600115158152505f5f3373ffffffffffffffffffffffffffffffffffffffff1673ffffffffffffffffffffffffffffffffffffffff1681526020019081526020015f205f820151815f01556020820151816001015560408201518160020155606082015181600301556080820151816004015f6101000a81548160ff0219169083151502179055509050506103ba33867f000000000000000000000000000000000000000000000000000000000000000073ffffffffffffffffffffffffffffffffffffffff166106059092919063ffffffff16565b3373ffffffffffffffffffffffffffffffffffffffff167fc4381c9c7b508979896c55381c1cb8c2aef28d753cff7661f9cd87b9a14584f886868560405161040493929190610c75565b60405180910390a25050505050565b7f000000000000000000000000000000000000000000000000000000000000000081565b5f5f5f3373ffffffffffffffffffffffffffffffffffffffff1673ffffffffffffffffffffffffffffffffffffffff1681526020019081526020015f209050806004015f9054906101000a900460ff166104c6576040517f08c379a00000000000000000000000000000000000000000000000000000000081526004016104bd90610cf4565b60405180910390fd5b5f815f0154905061051a3330837f000000000000000000000000000000000000000000000000000000000000000073ffffffffffffffffffffffffffffffffffffffff16610658909392919063ffffffff16565b5f826004015f6101000a81548160ff0219169083151502179055503373ffffffffffffffffffffffffffffffffffffffff167f0516911bcc3a0a7412a44601057c0a0a1ec628bde049a84284bc4288665344888260405161057b9190610d12565b60405180910390a25050565b5f602052805f5260405f205f91509050805f015490806001015490806002015490806003015490806004015f9054906101000a900460ff16905085565b6001602052805f5260405f205f915054906101000a900460ff1681565b7f000000000000000000000000000000000000000000000000000000000000000081565b61061283838360016106ad565b61065357826040517f5274afe700000000000000000000000000000000000000000000000000000000815260040161064a9190610a87565b60405180910390fd5b505050565b61066684848484600161070f565b6106a757836040517f5274afe700000000000000000000000000000000000000000000000000000000815260040161069e9190610a87565b60405180910390fd5b50505050565b5f5f63a9059cbb60e01b9050604051815f525f1960601c86166004528460245260205f60445f5f8b5af1925060015f511483166107015783831516156106f5573d5f823e3d81fd5b5f873b113d1516831692505b806040525050949350505050565b5f5f6323b872dd60e01b9050604051815f525f1960601c87166004525f1960601c86166024528460445260205f60645f5f8c5af1925060015f5114831661076d578383151615610761573d5f823e3d81fd5b5f883b113d1516831692505b806040525f606052505095945050505050565b5f5ffd5b5f819050919050565b61079681610784565b81146107a0575f5ffd5b50565b5f813590506107b18161078d565b92915050565b5f5f604083850312156107cd576107cc610780565b5b5f6107da858286016107a3565b92505060206107eb858286016107a3565b9150509250929050565b5f73ffffffffffffffffffffffffffffffffffffffff82169050919050565b5f819050919050565b5f61083761083261082d846107f5565b610814565b6107f5565b9050919050565b5f6108488261081d565b9050919050565b5f6108598261083e565b9050919050565b6108698161084f565b82525050565b5f6020820190506108825f830184610860565b92915050565b5f610892826107f5565b9050919050565b6108a281610888565b81146108ac575f5ffd5b50565b5f813590506108bd81610899565b92915050565b5f602082840312156108d8576108d7610780565b5b5f6108e5848285016108af565b91505092915050565b6108f781610784565b82525050565b5f8115159050919050565b610911816108fd565b82525050565b5f60a08201905061092a5f8301886108ee565b61093760208301876108ee565b61094460408301866108ee565b61095160608301856108ee565b61095e6080830184610908565b9695505050505050565b5f6020828403121561097d5761097c610780565b5b5f61098a848285016107a3565b91505092915050565b5f60ff82169050919050565b6109a881610993565b82525050565b5f6020820190506109c15f83018461099f565b92915050565b5f6109d18261083e565b9050919050565b6109e1816109c7565b82525050565b5f6020820190506109fa5f8301846109d8565b92915050565b5f82825260208201905092915050565b7f4578697374696e67206c6f616e206163746976650000000000000000000000005f82015250565b5f610a44601483610a00565b9150610a4f82610a10565b602082019050919050565b5f6020820190508181035f830152610a7181610a38565b9050919050565b610a8181610888565b82525050565b5f602082019050610a9a5f830184610a78565b92915050565b610aa981610993565b8114610ab3575f5ffd5b50565b5f81519050610ac481610aa0565b92915050565b5f81519050610ad88161078d565b92915050565b5f5f60408385031215610af457610af3610780565b5b5f610b0185828601610ab6565b9250506020610b1285828601610aca565b9150509250929050565b7f4e487b71000000000000000000000000000000000000000000000000000000005f52601160045260245ffd5b5f610b5382610784565b9150610b5e83610784565b9250828202610b6c81610784565b91508282048414831517610b8357610b82610b1c565b5b5092915050565b7f4e487b71000000000000000000000000000000000000000000000000000000005f52601260045260245ffd5b5f610bc182610784565b9150610bcc83610784565b925082610bdc57610bdb610b8a565b5b828204905092915050565b7f496e73756666696369656e7420636f6c6c61746572616c20666f7220796f75725f8201527f2073636f72650000000000000000000000000000000000000000000000000000602082015250565b5f610c41602683610a00565b9150610c4c82610be7565b604082019050919050565b5f6020820190508181035f830152610c6e81610c35565b9050919050565b5f606082019050610c885f8301866108ee565b610c9560208301856108ee565b610ca260408301846108ee565b949350505050565b7f4e6f20616374697665206c6f616e0000000000000000000000000000000000005f82015250565b5f610cde600e83610a00565b9150610ce982610caa565b602082019050919050565b5f6020820190508181035f830152610d0b81610cd2565b9050919050565b5f602082019050610d255f8301846108ee565b9291505056fea2646970667358221220622ca3a32a8bb07a87a6763f88cbd957c84ccc9462d37efc80ab74637332313264736f6c634300081e0033","linkReferences":{}},"methodIdentifiers":{"asset()":"38d52e0f","borrow(uint256,uint256)":"0ecbcdab","loans(address)":"73b4086b","minScoreForLTV(uint256)":"c1f32205","repay()":"402d8883","reputationOracle()":"fad844c1"},"id":10}