{"abi":[{"type":"constructor","inputs":[{"name":"_oracle","type":"address","internalType":"address"},{"name":"_asset","type":"address","internalType":"address"}],"stateMutability":"nonpayable"},{"type":"function","name":"asset","inputs":[],"outputs":[{"name":"","type":"address","internalType":"contract IERC20"}],"stateMutability":"view"},{"type":"function","name":"borrow","inputs":[{"name":"amount","type":"uint256","internalType":"uint256"},{"name":"collateralValue","type":"uint256","internalType":"uint256"}],"outputs":[],"stateMutability":"nonpayable"},{"type":"function","name":"loans","inputs":[{"name":"","type":"address","internalType":"address"}],"outputs":[{"name":"principal","type":"uint256","internalType":"uint256"},{"name":"collateral","type":"uint256","internalType":"uint256"},{"name":"ltv","type":"uint256","internalType":"uint256"},{"name":"startBlock","type":"uint256","internalType":"uint256"},{"name":"active","type":"bool","internalType":"bool"}],"stateMutability":"view"},{"type":"function","name":"minScoreForLTV","inputs":[{"name":"","type":"uint256","internalType":"uint256"}],"outputs":[{"name":"","type":"uint8","internalType":"uint8"}],"stateMutability":"view"},{"type":"function","name":"repay","inputs":[],"outputs":[],"stateMutability":"nonpayable"},{"type":"function","name":"reputationOracle","inputs":[],"outputs":[{"name":"","type":"address","internalType":"contract ReputationOracle"}],"stateMutability":"view"},{"type":"event","name":"Borrowed","inputs":[{"name":"user","type":"address","indexed":true,"internalType":"address"},{"name":"amount","type":"uint256","indexed":false,"internalType":"uint256"},{"name":"collateral","type":"uint256","indexed":false,"internalType":"uint256"},{"name":"ltv","type":"uint256","indexed":false,"internalType":"uint256"}],"anonymous":false},{"type":"event","name":"Repaid","inputs":[{"name":"user","type":"address","indexed":true,"internalType":"address"},{"name":"amount","type":"uint256","indexed":false,"internalType":"uint256"}],"anonymous":false}],"bytecode":{"object":"0x60c060405234801561000f575f5ffd5b50604051610d33380380610d338339818101604052810190610031919061017f565b8173ffffffffffffffffffffffffffffffffffffffff1660808173ffffffffffffffffffffffffffffffffffffffff16815250508073ffffffffffffffffffffffffffffffffffffffff1660a08173ffffffffffffffffffffffffffffffffffffffff1681525050605a60015f605a81526020019081526020015f205f6101000a81548160ff021916908360ff160217905550604660015f605081526020019081526020015f205f6101000a81548160ff021916908360ff160217905550603260015f604681526020019081526020015f205f6101000a81548160ff021916908360ff16021790555050506101bd565b5f5ffd5b5f73ffffffffffffffffffffffffffffffffffffffff82169050919050565b5f61014e82610125565b9050919050565b61015e81610144565b8114610168575f5ffd5b50565b5f8151905061017981610155565b92915050565b5f5f6040838503121561019557610194610121565b5b5f6101a28582860161016b565b92505060206101b38582860161016b565b9150509250929050565b60805160a051610b4e6101e55f395f6103ca01525f81816101ba015261054b0152610b4e5ff3fe608060405234801561000f575f5ffd5b5060043610610060575f3560e01c80630ecbcdab1461006457806338d52e0f14610080578063402d88831461009e57806373b4086b146100a8578063c1f32205146100dc578063fad844c11461010c575b5f5ffd5b61007e600480360381019061007991906105a4565b61012a565b005b6100886103c8565b604051610095919061065c565b60405180910390f35b6100a66103ec565b005b6100c260048036038101906100bd91906106b0565b6104ef565b6040516100d3959493929190610704565b60405180910390f35b6100f660048036038101906100f19190610755565b61052c565b604051610103919061079b565b60405180910390f35b610114610549565b60405161012191906107d4565b60405180910390f35b5f5f3373ffffffffffffffffffffffffffffffffffffffff1673ffffffffffffffffffffffffffffffffffffffff1681526020019081526020015f206004015f9054906101000a900460ff16156101b6576040517f08c379a00000000000000000000000000000000000000000000000000000000081526004016101ad90610847565b60405180910390fd5b5f5f7f000000000000000000000000000000000000000000000000000000000000000073ffffffffffffffffffffffffffffffffffffffff1663d3dd2bdf336040518263ffffffff1660e01b81526004016102119190610874565b6040805180830381865afa15801561022b573d5f5f3e3d5ffd5b505050506040513d601f19601f8201168201806040525081019061024f91906108cb565b915091505f5f905060558360ff1610156102c157816064866102719190610936565b61027b91906109a4565b9050808410156102c0576040517f08c379a00000000000000000000000000000000000000000000000000000000081526004016102b790610a44565b60405180910390fd5b5b6040518060a00160405280868152602001858152602001838152602001438152602001600115158152505f5f3373ffffffffffffffffffffffffffffffffffffffff1673ffffffffffffffffffffffffffffffffffffffff1681526020019081526020015f205f820151815f01556020820151816001015560408201518160020155606082015181600301556080820151816004015f6101000a81548160ff0219169083151502179055509050503373ffffffffffffffffffffffffffffffffffffffff167fc4381c9c7b508979896c55381c1cb8c2aef28d753cff7661f9cd87b9a14584f88686856040516103b993929190610a62565b60405180910390a25050505050565b7f000000000000000000000000000000000000000000000000000000000000000081565b5f5f5f3373ffffffffffffffffffffffffffffffffffffffff1673ffffffffffffffffffffffffffffffffffffffff1681526020019081526020015f209050806004015f9054906101000a900460ff1661047b576040517f08c379a000000000000000000000000000000000000000000000000000000000815260040161047290610ae1565b60405180910390fd5b5f815f015490505f826004015f6101000a81548160ff0219169083151502179055503373ffffffffffffffffffffffffffffffffffffffff167f0516911bcc3a0a7412a44601057c0a0a1ec628bde049a84284bc428866534488826040516104e39190610aff565b60405180910390a25050565b5f602052805f5260405f205f91509050805f015490806001015490806002015490806003015490806004015f9054906101000a900460ff16905085565b6001602052805f5260405f205f915054906101000a900460ff1681565b7f000000000000000000000000000000000000000000000000000000000000000081565b5f5ffd5b5f819050919050565b61058381610571565b811461058d575f5ffd5b50565b5f8135905061059e8161057a565b92915050565b5f5f604083850312156105ba576105b961056d565b5b5f6105c785828601610590565b92505060206105d885828601610590565b9150509250929050565b5f73ffffffffffffffffffffffffffffffffffffffff82169050919050565b5f819050919050565b5f61062461061f61061a846105e2565b610601565b6105e2565b9050919050565b5f6106358261060a565b9050919050565b5f6106468261062b565b9050919050565b6106568161063c565b82525050565b5f60208201905061066f5f83018461064d565b92915050565b5f61067f826105e2565b9050919050565b61068f81610675565b8114610699575f5ffd5b50565b5f813590506106aa81610686565b92915050565b5f602082840312156106c5576106c461056d565b5b5f6106d28482850161069c565b91505092915050565b6106e481610571565b82525050565b5f8115159050919050565b6106fe816106ea565b82525050565b5f60a0820190506107175f8301886106db565b61072460208301876106db565b61073160408301866106db565b61073e60608301856106db565b61074b60808301846106f5565b9695505050505050565b5f6020828403121561076a5761076961056d565b5b5f61077784828501610590565b91505092915050565b5f60ff82169050919050565b61079581610780565b82525050565b5f6020820190506107ae5f83018461078c565b92915050565b5f6107be8261062b565b9050919050565b6107ce816107b4565b82525050565b5f6020820190506107e75f8301846107c5565b92915050565b5f82825260208201905092915050565b7f4578697374696e67206c6f616e206163746976650000000000000000000000005f82015250565b5f6108316014836107ed565b915061083c826107fd565b602082019050919050565b5f6020820190508181035f83015261085e81610825565b9050919050565b61086e81610675565b82525050565b5f6020820190506108875f830184610865565b92915050565b61089681610780565b81146108a0575f5ffd5b50565b5f815190506108b18161088d565b92915050565b5f815190506108c58161057a565b92915050565b5f5f604083850312156108e1576108e061056d565b5b5f6108ee858286016108a3565b92505060206108ff858286016108b7565b9150509250929050565b7f4e487b71000000000000000000000000000000000000000000000000000000005f52601160045260245ffd5b5f61094082610571565b915061094b83610571565b925082820261095981610571565b915082820484148315176109705761096f610909565b5b5092915050565b7f4e487b71000000000000000000000000000000000000000000000000000000005f52601260045260245ffd5b5f6109ae82610571565b91506109b983610571565b9250826109c9576109c8610977565b5b828204905092915050565b7f496e73756666696369656e7420636f6c6c61746572616c20666f7220796f75725f8201527f2073636f72650000000000000000000000000000000000000000000000000000602082015250565b5f610a2e6026836107ed565b9150610a39826109d4565b604082019050919050565b5f6020820190508181035f830152610a5b81610a22565b9050919050565b5f606082019050610a755f8301866106db565b610a8260208301856106db565b610a8f60408301846106db565b949350505050565b7f4e6f20616374697665206c6f616e0000000000000000000000000000000000005f82015250565b5f610acb600e836107ed565b9150610ad682610a97565b602082019050919050565b5f6020820190508181035f830152610af881610abf565b9050919050565b5f602082019050610b125f8301846106db565b9291505056fea2646970667358221220ce1061a2902047eb8179345b1b24d2913573ee2b3a6a28c949848e0e9f56e90a64736f6c634300081e0033","linkReferences":{}},"methodIdentifiers":{"asset()":"38d52e0f","borrow(uint256,uint256)":"0ecbcdab","loans(address)":"73b4086b","minScoreForLTV(uint256)":"c1f32205","repay()":"402d8883","reputationOracle()":"fad844c1"},"id":27}